:1000000023C03DC03CC03BC03AC039C038C037C037
:1000100036C035C034C0CBC032C051C030C02FC094
:100020002EC02DC02CC000C102C104C106C108C130
:100030000AC10CC10EC110C112C114C116C118C130
:100040001AC11CC11EC120C111241FBECFE5D4E0BE
:10005000DEBFCDBF10E0A0E6B0E0ECEEF8E002C0FD
:1000600005900D92A638B107D9F720E0A6E8B0E0D8
:1000700001C01D92AD39B207E1F73FD135C4C0CF01
:1000800090BD89B9599A88ED8AB98EE880BD0895E6
:100090005D9BFECF939A8CB908950F931F93CF93D6
:1000A000DF93EC018C010E5E1F4F8991F1DFC017C9
:1000B000D107D9F7DF91CF911F910F9108951F922A
:1000C0000F920FB60F92112493980F900FBE0F90BE
:1000D0001F9018950F931F93CF93DF93CDB7DEB783
:1000E00062970FB6F894DEBF0FBECDBFFB01BA0119
:1000F000D90111964C9111971F924F932C911F92F9
:100100002F93DB0113962C9113971F922F93129626
:100110002C9112971F922F9311962C9111971F9249
:100120002F932C911F922F9325811F922F9324811F
:100130001F922F9323811F922F9322811F922F931F
:1001400021811F922F9320811F922F9320919A003B
:100150001F922F93EBE9F0E021811F922F932081D2
:100160001F922F93FC0121811F922F9380811F9258
:100170008F931F921F9280E690E09F938F938E0142
:100180000F5F1F4F1F930F93D7D00FB6F894DEBFAA
:100190000FBECDBFC80181DF62960FB6F894DEBFF7
:1001A0000FBECDBFDF91CF911F910F9108951F9288
:1001B0000F920FB60F9211244F935F936F937F931B
:1001C0008F939F93AF93BF93EF93FF938BB19CB1AA
:1001D000887109F072C080918700811162C091110D
:1001E0006CC0109299001092980010929700109293
:1001F00096001092950086E0EFE8F0E0DF011D9296
:100200008A95E9F784E0EBE8F0E0DF011D928A953A
:10021000E9F710928A001092890081E080938700AC
:100220001092860080E032C0909398002FC0909387
:1002300099002CC09093960029C09093970026C0F7
:100240009093950023C090938F0020C090939000CE
:100250001DC0909391001AC09093920017C0909384
:10026000930014C09093940011C090938B000EC023
:1002700090938C000BC090938D0008C090938E00DB
:1002800005C09093890002C0909389008F5F80938E
:100290008800823190F01092870081E08093860080
:1002A0000CC080918800482F50E0FA013197E1316D
:1002B000F10560F7ED5EFF4F0994FF91EF91BF915B
:1002C000AF919F918F917F916F915F914F910F901F
:1002D0000FBE0F901F901895FC012081213061F412
:1002E00081818E3549F429E830E04BE850E06FE831
:1002F00070E088E990E0EEDE089588E090E0C0DEEE
:100300008B9A939884B3836084BB78948FEC97E046
:100310000197F1F700C00000809186008823B1F3B7
:100320001092860029E830E04BE850E06FE870E07A
:1003300088E990E0D1DFEACFAEE0B0E0E1EAF1E0B9
:10034000AAC20D891E8986E08C831A8309838FEFE8
:100350009FE79E838D83AE01475E5F4F6F89788DE7
:10036000CE01019608D0EF81F885E00FF11F1082D1
:100370002E96E4E0ACC2ABE0B0E0E0ECF1E07DC290
:100380006C017B018A01FC0117821682838181FF47
:10039000BFC1CE0101963C01F6019381F70193FDA7
:1003A000859193FF81917F01882309F4ADC1853246
:1003B00039F493FD859193FF81917F01853221F47A
:1003C000B60190E0C0D1E8CF912C212C312CFFE177
:1003D000F315D8F08B3279F038F4803279F083322B
:1003E000A1F4232D20611DC08D3261F0803369F4AA
:1003F000232D216016C0832D8260382EE32DE4600A
:100400003E2E2AC0F32DF8601DC037FC2DC020ED14
:10041000280F2A3040F08E32B9F436FC75C1232DF6
:100420002064322E19C036FE06C08AE0989E200D48
:100430001124922E11C0EAE02E9E200D1124222EAE
:10044000F32DF0623F2E08C08C3621F4832D806896
:10045000382E02C0883641F4F70193FD859193FF51
:1004600081917F018111B3CF982F9F7D9554933057
:1004700028F40C5F1F4F9FE399830DC0833631F042
:10048000833771F0833509F055C020C0F8018081B1
:1004900089830E5F1F4F88248394912C530112C0CF
:1004A0002801F2E04F0E511CF801A080B18036FE09
:1004B00003C0692D70E002C06FEF7FEFC50138D136
:1004C0004C018201F32DFF773F2E15C0280122E059
:1004D000420E511CF801A080B18036FE03C0692D88
:1004E00070E002C06FEF7FEFC50117D14C01F32D13
:1004F000F0683F2E820133FC19C0822D90E08816EF
:100500009906A0F4B60180E290E01DD12A94F5CFBF
:10051000F50137FC859137FE81915F01B60190E0CE
:1005200012D121102A9421E0821A91088114910499
:1005300079F7E1C0843611F0893639F5F80137FED4
:1005400007C060817181828193810C5F1F4F08C059
:1005500060817181072E000C880B990B0E5F1F4F75
:10056000F32DFF763F2E97FF09C0909580957095EB
:1005700061957F4F8F4F9F4FF0683F2E2AE030E00C
:10058000A3011DD1882E861844C0853731F4232D50
:100590002F7EB22E2AE030E025C0932D997FB92E10
:1005A0008F36C1F018F4883579F0AEC0803719F075
:1005B000883721F0A9C0E92FE061BE2EB4FE0DC03E
:1005C000FB2DF460BF2E09C034FE0AC0292F26601F
:1005D000B22E06C028E030E005C020E130E002C0C5
:1005E00020E132E0F801B7FE07C0608171818281AD
:1005F00093810C5F1F4F06C06081718180E090E0A5
:100600000E5F1F4FA301DBD0882E8618FB2DFF77CE
:100610003F2E36FE0DC0232D2E7FA22E891458F4B6
:1006200034FE0BC032FC09C0832D8E7EA82E05C07F
:10063000B82CA32C03C0B82C01C0B92CA4FE0FC049
:10064000FE01E80DF11D8081803321F49A2D997E01
:10065000A92E09C0A2FE06C0B394B39404C08A2D8B
:10066000867809F0B394A3FC10C0A0FE06C0B214B3
:1006700080F4280C922C9B180DC0B21458F4B601CB
:1006800080E290E060D0B394F8CFB21418F42B1845
:1006900002C0982C212CA4FE0FC0B60180E390E08C
:1006A00052D0A2FE16C0A1FC03C088E790E002C0B1
:1006B00088E590E0B6010CC08A2D867851F0A1FE45
:1006C00002C08BE201C080E2A7FC8DE2B60190E09F
:1006D0003AD0891430F4B60180E390E034D09A9493
:1006E000F8CF8A94F301E80DF11D8081B60190E006
:1006F0002AD08110F6CF222009F44ECEB60180E236
:1007000090E021D02A94F7CFF6018681978102C02C
:100710008FEF9FEF2B96E2E1CCC0FC01059061507A
:1007200070400110D8F7809590958E0F9F1F089507
:10073000FC016150704001900110D8F780959095B0
:100740008E0F9F1F08950F931F93CF93DF93FB018D
:10075000238121FD03C08FEF9FEF2CC022FF16C025
:1007600046815781248135814217530744F4A08183
:10077000B1819D012F5F3F4F318320838C93268170
:1007800037812F5F3F4F3783268314C08B01EC01E5
:10079000FB010084F185E02D0995892BE1F6D80154
:1007A00016968D919C911797019617969C938E9310
:1007B0001697CE01DF91CF911F910F910895FA0105
:1007C000AA27283051F1203181F1E8946F936E7F90
:1007D0006E5F7F4F8F4F9F4FAF4FB1E03ED0B4E081
:1007E0003CD0670F781F891F9A1FA11D680F791FC2
:1007F0008A1F911DA11D6A0F711D811D911DA11DD3
:1008000020D009F468943F912AE0269F11243019E2
:10081000305D3193DEF6CF010895462F4770405D7D
:100820004193B3E00FD0C9F7F6CF462F4F70405D2C
:100830004A3318F0495D31FD4052419302D0A9F787
:10084000EACFB4E0A6959795879577956795BA9581
:10085000C9F700976105710508959B01AC010A2E47
:1008600006945795479537952795BA95C9F7620F1E
:10087000731F841F951FA01D08952F923F924F92C2
:100880005F926F927F928F929F92AF92BF92CF9220
:10089000DF92EF92FF920F931F93CF93DF93CDB729
:1008A000DEB7CA1BDB0B0FB6F894DEBF0FBECDBFA1
:1008B00009942A88398848885F846E847D848C8472
:1008C0009B84AA84B984C884DF80EE80FD800C817B
:1008D0001B81AA81B981CE0FD11D0FB6F894DEBF5E
:0C08E0000FBECDBFED010895F894FFCFCE
:1008EC0025632563256325632563256325632563BC
:1008FC0025632563256325632563256325632563AC
:06090C00256325630000D5
:00000001FF
