:1000000023C032C031C030C02FC02EC02DC02CC084
:100010002BC02AC029C0E0C027C067C025C024C0AB
:1000200023C022C021C015C117C119C11BC11DC1E8
:100030001FC121C123C125C127C129C12BC12DC188
:100040002FC131C133C135C111241FBECFE5D4E06A
:10005000DEBFCDBF20E0A0E6B0E001C01D92A73713
:10006000B207E1F7B8D1E0C1CBCF95B321E030E0E2
:1000700002C0220F331F8A95E2F7292B25BB089572
:1000800095B321E030E002C0220F331F8A95E2F7DA
:100090002095292325BB089518BA17BA12BC85B537
:1000A0008F6685BD14BC19BE13BC089590BD89B977
:1000B000599A88ED8AB98EE880BD08955D9BFECF80
:1000C000939A8CB908950F931F93CF93DF93EC010C
:1000D0008C010E5E1F4F8991F1DFC017D107D9F750
:1000E000DF91CF911F910F9108951F920F920FB63C
:1000F0000F92112493980F900FBE0F901F90189598
:10010000FC01AC01460F511D80E090E0E417F507BB
:1001100081F02191922728E0992334F4880F991FC8
:1001200035E08327905802C0880F991F2150A1F70E
:10013000EDCF0895EF92FF920F931F93CF93DF932C
:10014000CDB7DEB762970FB6F894DEBF0FBECDBF56
:100150008C01FB017A01CE01019642E1DC011D9286
:100160004A95E9F7D8014C914A8311964C914B83FB
:1001700045E750E0DA016C916C8311964C914D8308
:10018000409174004E8340814F8341814887428172
:10019000498743814A8744814B8745814C87F701D2
:1001A00040814D8741814E8742814F874381488BF3
:1001B000D9014C91498B11962C912A8B84DF629640
:1001C0000FB6F894DEBF0FBECDBFDF91CF911F9168
:1001D0000F91FF90EF9008951F920F920FB60F921C
:1001E00011244F935F936F937F938F939F93AF935C
:1001F000BF93EF93FF938BB19CB1887109F072C0EC
:1002000080916100811162C091116CC010927300E5
:1002100010927200109271001092700010926F0094
:1002200086E0E9E6F0E0DF011D928A95E9F784E0D7
:10023000E5E6F0E0DF011D928A95E9F7109264008F
:100240001092630081E0809361001092600080E072
:1002500032C0909372002FC0909373002CC0909383
:10026000700029C09093710026C090936F0023C046
:100270009093690020C090936A001DC090936B001A
:100280001AC090936C0017C090936D0014C09093A7
:100290006E0011C0909365000EC0909366000BC075
:1002A0009093670008C09093680005C09093630026
:1002B00002C0909364008F5F80936200823190F05F
:1002C0001092610081E0809360000CC08091620018
:1002D000482F50E0FA013197E131F10560F7ED5E0A
:1002E000FF4F0994FF91EF91BF91AF919F918F9133
:1002F0007F916F915F914F910F900FBE0F901F9064
:100300001895CF92DF92EF92FF920F931F93CF93A6
:10031000DF93CDB7DEB72F970FB6F894DEBF0FBED1
:10032000CDBF6C01F901DC018C91898311968C9110
:100330008A83DB018C918B8311968C918C834D8306
:1003400080818E8381818F83828188878381898761
:1003500084818A8785818B87F80180818C87818160
:100360008D8782818E8783818F876FE0CE01019692
:10037000C7DED7012C91291313C011969C919813B5
:100380000FC081E090E071DE81E090E079DEF6015F
:100390008081813029F481818E3511F48FE783BD0E
:1003A0002F960FB6F894DEBF0FBECDBFDF91CF9171
:1003B0001F910F91FF90EF90DF90CF900895F9017A
:1003C000DC013C91313031F411962C912E3511F431
:1003D0009F01B0DE089560DE88E090E067DE8B9AD2
:1003E000939884B3836084BB78940F2EF3E6EF2E4A
:1003F000F0E0FF2EF02D05E610E029E630E0409118
:100400006F0060E770E082E790E07BDF8091600042
:10041000882359F3109260009701A80169E670E003
:0C04200082E790E0CCDFE1CFF894FFCF42
:00000001FF
