:1000000012C02CC02BC02AC029C028C027C026C0BF
:1000100025C024C023C0A2C021C057C01FC01EC01D
:100020001DC01CC01BC011241FBECFE5D4E0DEBF25
:10003000CDBF10E0A0E6B0E0E6E3F8E002C0059036
:100040000D92A637B107D9F720E0A6E7B0E001C0CE
:100050001D92A038B207E1F7FED0EBC3D1CF95B324
:1000600021E030E002C0220F331F8A95E2F7292BEE
:1000700025BB089595B321E030E002C0220F331F65
:100080008A95E2F72095292325BB089590BD89B96B
:10009000599A88ED8AB98EE880BD08955D9BFECFA0
:1000A000939A8CB908950F931F93CF93DF93EC012C
:1000B0008C01085F1F4F8991F1DFC017D107D9F775
:1000C000DF91CF911F910F9108951F920F920FB65C
:1000D0000F92112493980F900FBE0F901F901895B8
:1000E0000F931F93CF93DF93CDB7DEB728970FB64B
:1000F000F894DEBF0FBECDBFFC011F928CEB8F9337
:100100001F924F931F926F9383811F928F938281CF
:100110001F928F9381811F928F9380811F928F9363
:100120001F921F9284E690E09F938F938E010F5F42
:100130001F4F1F930F93A5D0C801B5DF0FB6F894DA
:10014000DEBF0FBECDBF28960FB6F894DEBF0FBE40
:10015000CDBFDF91CF911F910F9108951F920F9204
:100160000FB60F9211248F939F93AF93BF93EF938A
:10017000FF938BB19CB1887109F048C0911111C0F7
:1001800084E0EBE7F0E0DF011D928A95E9F7109239
:100190007A0010927F0081E08093770010927600C1
:1001A00010C09C3B51F480917700882379F1109224
:1001B000770081E08093760029C0809177008823C2
:1001C00029F180917F00853048F4E82FF0E0E55870
:1001D000FF4F90838F5F80937F000FC0853031F495
:1001E00090937A0086E080937F0010C0863028F0DC
:1001F000909379008F5F80937F0080917F0088309B
:1002000028F01092770081E080937800FF91EF91C1
:10021000BF91AF919F918F910F900FBE0F901F9044
:100220001895CF938130A9F4C62F81E090E017DFB5
:100230004C2F62E080E690E053DF2FE788E391E007
:10024000215080409040E1F700C0000081E090E044
:1002500011DFCF91089588E090E018DF8B9A939892
:1002600084B3836084BB78940000809176008823F7
:10027000D9F3109276006091790080917A00D1DFF5
:10028000F3CFAEE0B0E0E6E4F1E0AAC20D891E894A
:1002900086E08C831A8309838FEF9FE79E838D838B
:1002A000AE01475E5F4F6F89788DCE01019608D011
:1002B000EF81F885E00FF11F10822E96E4E0ACC2CA
:1002C000ABE0B0E0E5E6F1E07DC26C017B018A01C4
:1002D000FC0117821682838181FFBFC1CE01019686
:1002E0003C01F6019381F70193FD859193FF819184
:1002F0007F01882309F4ADC1853239F493FD8591DE
:1003000093FF81917F01853221F4B60190E0C0D145
:10031000E8CF912C212C312CFFE1F315D8F08B3252
:1003200079F038F4803279F08332A1F4232D206102
:100330001DC08D3261F0803369F4232D216016C019
:10034000832D8260382EE32DE4603E2E2AC0F32DEB
:10035000F8601DC037FC2DC020ED280F2A3040F07A
:100360008E32B9F436FC75C1232D2064322E19C0AB
:1003700036FE06C08AE0989E200D1124922E11C0F0
:10038000EAE02E9E200D1124222EF32DF0623F2E46
:1003900008C08C3621F4832D8068382E02C0883640
:1003A00041F4F70193FD859193FF81917F018111C4
:1003B000B3CF982F9F7D9554933028F40C5F1F4F37
:1003C0009FE399830DC0833631F0833771F0833515
:1003D00009F055C020C0F801808189830E5F1F4F4E
:1003E00088248394912C530112C02801F2E04F0E0F
:1003F000511CF801A080B18036FE03C0692D70E069
:1004000002C06FEF7FEFC50138D14C018201F32D9F
:10041000FF773F2E15C0280122E0420E511CF80143
:10042000A080B18036FE03C0692D70E002C06FEF7E
:100430007FEFC50117D14C01F32DF0683F2E8201EB
:1004400033FC19C0822D90E088169906A0F4B601FD
:1004500080E290E01DD12A94F5CFF50137FC85911B
:1004600037FE81915F01B60190E012D121102A94EC
:1004700021E0821A91088114910479F7E1C0843651
:1004800011F0893639F5F80137FE07C060817181B6
:10049000828193810C5F1F4F08C060817181072E9C
:1004A000000C880B990B0E5F1F4FF32DFF763F2E2C
:1004B00097FF09C090958095709561957F4F8F4FFC
:1004C0009F4FF0683F2E2AE030E0A3011DD1882E17
:1004D000861844C0853731F4232D2F7EB22E2AE0B2
:1004E00030E025C0932D997FB92E8F36C1F018F4D6
:1004F000883579F0AEC0803719F0883721F0A9C06F
:10050000E92FE061BE2EB4FE0DC0FB2DF460BF2EBE
:1005100009C034FE0AC0292F2660B22E06C028E08A
:1005200030E005C020E130E002C020E132E0F80117
:10053000B7FE07C060817181828193810C5F1F4F7C
:1005400006C06081718180E090E00E5F1F4FA301C3
:10055000DBD0882E8618FB2DFF773F2E36FE0DC090
:10056000232D2E7FA22E891458F434FE0BC032FCAA
:1005700009C0832D8E7EA82E05C0B82CA32C03C0E5
:10058000B82C01C0B92CA4FE0FC0FE01E80DF11D6E
:100590008081803321F49A2D997EA92E09C0A2FE74
:1005A00006C0B394B39404C08A2D867809F0B3943E
:1005B000A3FC10C0A0FE06C0B21480F4280C922C3C
:1005C0009B180DC0B21458F4B60180E290E060D0E0
:1005D000B394F8CFB21418F42B1802C0982C212C25
:1005E000A4FE0FC0B60180E390E052D0A2FE16C078
:1005F000A1FC03C088E790E002C088E590E0B60166
:100600000CC08A2D867851F0A1FE02C08BE201C099
:1006100080E2A7FC8DE2B60190E03AD0891430F474
:10062000B60180E390E034D09A94F8CF8A94F30135
:10063000E80DF11D8081B60190E02AD08110F6CF3F
:10064000222009F44ECEB60180E290E021D02A9417
:10065000F7CFF6018681978102C08FEF9FEF2B962F
:10066000E2E1CCC0FC010590615070400110D8F768
:10067000809590958E0F9F1F0895FC0161507040EA
:1006800001900110D8F7809590958E0F9F1F0895C7
:100690000F931F93CF93DF93FB01238121FD03C0B1
:1006A0008FEF9FEF2CC022FF16C046815781248117
:1006B00035814217530744F4A081B1819D012F5F1A
:1006C0003F4F318320838C93268137812F5F3F4FAB
:1006D0003783268314C08B01EC01FB010084F18574
:1006E000E02D0995892BE1F6D80116968D919C9104
:1006F0001797019617969C938E931697CE01DF91CC
:10070000CF911F910F910895FA01AA27283051F136
:10071000203181F1E8946F936E7F6E5F7F4F8F4F32
:100720009F4FAF4FB1E03ED0B4E03CD0670F781F91
:10073000891F9A1FA11D680F791F8A1F911DA11D76
:100740006A0F711D811D911DA11D20D009F46894AF
:100750003F912AE0269F11243019305D3193DEF657
:10076000CF010895462F4770405D4193B3E00FD00D
:10077000C9F7F6CF462F4F70405D4A3318F0495DF8
:1007800031FD4052419302D0A9F7EACFB4E0A695DB
:100790009795879577956795BA95C9F700976105FD
:1007A000710508959B01AC010A2E06945795479553
:1007B00037952795BA95C9F7620F731F841F951F48
:1007C000A01D08952F923F924F925F926F927F9259
:1007D0008F929F92AF92BF92CF92DF92EF92FF9251
:1007E0000F931F93CF93DF93CDB7DEB7CA1BDB0BFD
:1007F0000FB6F894DEBF0FBECDBF09942A883988A2
:1008000048885F846E847D848C849B84AA84B984A8
:10081000C884DF80EE80FD800C811B81AA81B981B4
:10082000CE0FD11D0FB6F894DEBF0FBECDBFED01C8
:060830000895F894FFCFCB
:10083600111111112563256325632563256325633E
:060846002563256300009C
:00000001FF
