:100000000C942A000C9447000C9447000C94470071
:100010000C9447000C9447000C9447000C94470044
:100020000C9447000C9447000C9447000C94CC00AF
:100030000C9447000C9480000C9447000C944700EB
:100040000C9447000C9447000C9447000C94470014
:100050000C94470011241FBECFE5D4E0DEBFCDBF16
:1000600010E0A0E6B0E0ECEFF8E002C005900D92E1
:10007000A637B107D9F720E0A6E7B0E001C01D928E
:10008000A038B207E1F70E944C010C947C040C9458
:10009000000095B321E030E002C0220F331F8A95A3
:1000A000E2F7292B25BB089595B321E030E002C08B
:1000B000220F331F8A95E2F72095292325BB089547
:1000C00090BD89B9599A88ED8AB98EE880BD0895A6
:1000D0005D9BFECF939A8CB908950F931F93CF9396
:1000E000DF93EC018C01085F1F4F89910E9468002B
:1000F000C017D107D1F7DF91CF911F910F910895CC
:100100001F920F920FB60F92112493980F900FBE6B
:100110000F901F9018950F931F93CF93DF93CDB738
:10012000DEB728970FB6F894DEBF0FBECDBFFC0137
:100130001F928CEB8F931F928CEC8F931F926F9377
:1001400083811F928F9382811F928F9381811F924F
:100150008F9380811F928F931F921F9284E690E06D
:100160009F938F938E010F5F1F4F1F930F930E94DA
:100170009201C8010E946D000FB6F894DEBF0FBE59
:10018000CDBF28960FB6F894DEBF0FBECDBFDF916E
:10019000CF911F910F9108951F920F920FB60F925A
:1001A00011248F939F93AF93BF93EF93FF938BB1E2
:1001B0009CB1887109F048C0911111C084E0EBE74F
:1001C000F0E0DF011D928A95E9F710927A00109213
:1001D0007F0081E0809377001092760010C09C3BF6
:1001E00051F480917700882379F11092770081E0B3
:1001F0008093760029C080917700882329F180912F
:100200007F00853048F4E82FF0E0E558FF4F9083F9
:100210008F5F80937F000FC0853031F490937A0018
:1002200086E080937F0010C0863028F0909379009C
:100230008F5F80937F0080917F00883028F010923C
:10024000770081E080937800FF91EF91BF91AF91AB
:100250009F918F910F900FBE0F901F901895CF9385
:100260008230C1F4C62F81E090E00E9449004C2FFB
:1002700061E080E690E00E948B002FE788E391E048
:10028000215080409040E1F700C0000081E090E004
:100290000E945400CF910895CF93DF9300D000D0F7
:1002A000CDB7DEB788E090E00E94600082EF8983DE
:1002B0008A838B838C838B9A939884B3836084BB6B
:1002C00078948FE295E70197F1F700C00000409124
:1002D000790061E0CE0101960E948B0080E090E001
:1002E0000E9449009FE728E381E091502040804030
:1002F000E1F700C0000080E090E00E94540080918F
:100300007600882341F01092760060917900809108
:100310007A000E942F018FE295E70197F1F700C064
:100320000000DCCFAEE0B0E0E8E9F1E00C9453046B
:100330000D891E8986E08C831A8309838FEF9FE7DE
:100340009E838D83AE01475E5F4F6F89788DCE01AE
:1003500001960E94B401EF81F885E00FF11F108231
:100360002E96E4E00C946F04ABE0B0E0EAEBF1E031
:100370000C9445046C017B018A01FC0117821682F2
:10038000838181FFCCC1CE0101963C01F6019381AE
:10039000F70193FD859193FF81917F01882309F4F3
:1003A000BAC1853239F493FD859193FF81917F0124
:1003B000853229F4B60190E00E94AB03E7CF912C7F
:1003C000212C312CFFE1F315D8F08B3279F038F481
:1003D000803279F08332A1F4232D20611DC08D324B
:1003E00061F0803369F4232D216016C0832D826073
:1003F000382EE32DE4603E2E2AC0F32DF8601DC098
:1004000037FC2DC020ED280F2A3040F08E32B9F491
:1004100036FC81C1232D2064322E19C036FE06C061
:100420008AE0989E200D1124922E11C0EAE02E9EA3
:10043000200D1124222EF32DF0623F2E08C08C36A1
:1004400021F4832D8068382E02C0883641F4F701EC
:1004500093FD859193FF81917F018111B3CF982FF7
:100460009F7D9554933028F40C5F1F4F9FE3998331
:100470000DC0833631F0833771F0833509F059C0F0
:1004800021C0F801808189830E5F1F4F88248394E7
:10049000912C530113C02801F2E04F0E511CF801BA
:1004A000A080B18036FE03C0692D70E002C06FEFFE
:1004B0007FEFC5010E94A0034C018201F32DFF775D
:1004C0003F2E16C0280122E0420E511CF801A080E8
:1004D000B18036FE03C0692D70E002C06FEF7FEF80
:1004E000C5010E9495034C01F32DF0683F2E820157
:1004F00033FC1BC0822D90E088169906B0F4B6013B
:1005000080E290E00E94AB032A94F4CFF50137FC1F
:10051000859137FE81915F01B60190E00E94AB03A7
:1005200021102A9421E0821A91088114910471F714
:10053000E8C0843611F0893641F5F80137FE07C06E
:1005400060817181828193810C5F1F4F08C060813F
:100550007181072E000C880B990B0E5F1F4FF32D36
:10056000FF763F2E97FF09C0909580957095619515
:100570007F4F8F4F9F4FF0683F2E2AE030E0A3015E
:100580000E94E703882E861845C0853731F4232D55
:100590002F7EB22E2AE030E025C0932D997FB92E10
:1005A0008F36C1F018F4883579F0B5C0803719F06E
:1005B000883721F0B0C0E92FE061BE2EB4FE0DC037
:1005C000FB2DF460BF2E09C034FE0AC0292F26601F
:1005D000B22E06C028E030E005C020E130E002C0C5
:1005E00020E132E0F801B7FE07C0608171818281AD
:1005F00093810C5F1F4F06C06081718180E090E0A5
:100600000E5F1F4FA3010E94E703882E8618FB2D63
:10061000FF773F2E36FE0DC0232D2E7FA22E89148C
:1006200058F434FE0BC032FC09C0832D8E7EA82EF8
:1006300005C0B82CA32C03C0B82C01C0B92CA4FE53
:100640000FC0FE01E80DF11D8081803321F49A2D49
:10065000997EA92E09C0A2FE06C0B394B39404C02B
:100660008A2D867809F0B394A3FC11C0A0FE06C0C1
:10067000B21488F4280C922C9B180EC0B21460F4AB
:10068000B60180E290E00E94AB03B394F7CFB214BE
:1006900018F42B1802C0982C212CA4FE10C0B6010F
:1006A00080E390E00E94AB03A2FE17C0A1FC03C050
:1006B00088E790E002C088E590E0B6010CC08A2D82
:1006C000867859F0A1FE02C08BE201C080E2A7FC4F
:1006D0008DE2B60190E00E94AB03891438F4B601B4
:1006E00080E390E00E94AB039A94F7CF8A94F301E1
:1006F000E80DF11D8081B60190E00E94AB038110EE
:10070000F5CF222009F442CEB60180E290E00E94AB
:10071000AB032A94F6CFF6018681978102C08FEF52
:100720009FEF2B96E2E10C946104FC01059061506F
:1007300070400110D8F7809590958E0F9F1F0895F7
:10074000FC016150704001900110D8F780959095A0
:100750008E0F9F1F08950F931F93CF93DF93FB017D
:10076000238121FD03C08FEF9FEF2CC022FF16C015
:1007700046815781248135814217530744F4A08173
:10078000B1819D012F5F3F4F318320838C93268160
:1007900037812F5F3F4F3783268314C08B01EC01D5
:1007A000FB010084F185E02D0995892BE1F6D80144
:1007B00016968D919C911797019617969C938E9300
:1007C0001697CE01DF91CF911F910F910895FA01F5
:1007D000AA27283051F1203181F1E8946F936E7F80
:1007E0006E5F7F4F8F4F9F4FAF4FB1E03ED0B4E071
:1007F0003CD0670F781F891F9A1FA11D680F791FB2
:100800008A1F911DA11D6A0F711D811D911DA11DC2
:1008100020D009F468943F912AE0269F11243019D2
:10082000305D3193DEF6CF010895462F4770405D6D
:100830004193B3E00FD0C9F7F6CF462F4F70405D1C
:100840004A3318F0495D31FD4052419302D0A9F777
:10085000EACFB4E0A6959795879577956795BA9571
:10086000C9F700976105710508959B01AC010A2E37
:1008700006945795479537952795BA95C9F7620F0E
:10088000731F841F951FA01D08952F923F924F92B2
:100890005F926F927F928F929F92AF92BF92CF9210
:1008A000DF92EF92FF920F931F93CF93DF93CDB719
:1008B000DEB7CA1BDB0B0FB6F894DEBF0FBECDBF91
:1008C00009942A88398848885F846E847D848C8462
:1008D0009B84AA84B984C884DF80EE80FD800C816B
:1008E0001B81AA81B981CE0FD11D0FB6F894DEBF4E
:0C08F0000FBECDBFED010895F894FFCFBE
:1008FC0001010101256325632563256325632563B8
:06090C00256325630000D5
:00000001FF
