:100000000C943B000C9458000C9458000C9458002D
:100010000C9458000C9458000C9458000C94580000
:100020000C9458000C9458000C9458000C94F40054
:100030000C9458000C947A000C9458000C945800BE
:100040000C9458000C9458000C9458000C945800D0
:100050000C9458003101340137013A013D0140014F
:100060004301460149014C014F015201550158011C
:100070005B015E01610111241FBECFE5D4E0DEBF4C
:10008000CDBF10E0A0E6B0E0EAE8F9E002C00590DC
:100090000D92A638B107D9F720E0A6E8B0E001C07C
:1000A0001D92AB3AB207E1F70E949A010C94C30487
:1000B0000C94000090BD89B9599A88ED8AB98EE8F0
:1000C00080BD08955D9BFECF939A8CB908950F93E0
:1000D0001F93CF93DF93EC018C010E5E1F4F89912C
:1000E0000E946200C017D107D1F7DF91CF911F9115
:1000F0000F9108951F920F920FB60F9211249398AB
:100100000F900FBE0F901F9018950F931F93CF93D2
:10011000DF93CDB7DEB762970FB6F894DEBF0FBEA0
:10012000CDBFFB01BA01D90111964C9111971F92D5
:100130004F932C911F922F93DB0113962C911397C1
:100140001F922F9312962C9112971F922F93119614
:100150002C9111971F922F932C911F922F932581F1
:100160001F922F9324811F922F9323811F922F93ED
:1001700022811F922F9321811F922F9320811F9202
:100180002F932091A6001F922F93E7EAF0E02181A0
:100190001F922F9320811F922F93FC0121811F9288
:1001A0002F9380811F928F931F921F9280E690E081
:1001B0009F938F938E010F5F1F4F1F930F930E948A
:1001C000D9010FB6F894DEBF0FBECDBFC8010E94A3
:1001D000670062960FB6F894DEBF0FBECDBFDF9109
:1001E000CF911F910F9108951F920F920FB60F920A
:1001F00011244F935F936F937F938F939F93AF934C
:10020000BF93EF93FF938BB19CB1887109F073C0DA
:1002100080918700811162C091116DC01092990088
:1002200010929800109297001092960010929500EC
:1002300086E0EFE8F0E0DF011D928A95E9F784E0BF
:10024000EBE8F0E0DF011D928A95E9F710928A0051
:100250001092890081E0809387001092860080E0F0
:1002600032C0909398002FC0909399002CC0909327
:10027000960029C09093970026C09093950023C0C4
:1002800090938F0020C0909390001DC09093910098
:100290001AC09093920017C09093930014C090934B
:1002A000940011C090938B000EC090938C000BC0F3
:1002B00090938D0008C090938E0005C090938900A4
:1002C00002C090938A008F5F80938800823198F0FB
:1002D0001092870081E0809386000DC08091880095
:1002E000482F50E0FA013197E131F10560F7E65D02
:1002F000FF4F0C94D301FF91EF91BF91AF919F916C
:100300008F917F916F915F914F910F900FBE0F90E2
:100310001F90189521E030E0FC0140814F3F11F023
:1003200020E030E0FC01E20FF31F808191E0980FA4
:100330009083089588E090E00E945A00E9EAF0E096
:1003400081E080839EE591838093A0008CE990E01A
:100350000E948A018093A0008B9A939884B3836053
:1003600084BB78942AE930E04CE950E060EA70E020
:1003700089EA90E00E9485008FEC97E00197F1F701
:1003800000C00000809186008823B1F3109286009F
:1003900029E830E04BE850E06FE870E088E990E051
:1003A0000E948500E9CFEE0FFF1F0590F491E02D2C
:1003B0000994AEE0B0E0EFEDF1E00C949A040D8901
:1003C0001E8986E08C831A8309838FEF9FE79E83C3
:1003D0008D83AE01475E5F4F6F89788DCE010196A8
:1003E0000E94FB01EF81F885E00FF11F10822E962D
:1003F000E4E00C94B604ABE0B0E0E1E0F2E00C9491
:100400008C046C017B018A01FC01178216828381B6
:1004100081FFCCC1CE0101963C01F6019381F70129
:1004200093FD859193FF81917F01882309F4BAC1DF
:10043000853239F493FD859193FF81917F01853257
:1004400029F4B60190E00E94F203E7CF912C212C11
:10045000312CFFE1F315D8F08B3279F038F480328B
:1004600079F08332A1F4232D20611DC08D3261F01B
:10047000803369F4232D216016C0832D8260382ECD
:10048000E32DE4603E2E2AC0F32DF8601DC037FC3A
:100490002DC020ED280F2A3040F08E32B9F436FC02
:1004A00081C1232D2064322E19C036FE06C08AE099
:1004B000989E200D1124922E11C0EAE02E9E200D50
:1004C0001124222EF32DF0623F2E08C08C3621F429
:1004D000832D8068382E02C0883641F4F70193FDE1
:1004E000859193FF81917F018111B3CF982F9F7DDB
:1004F0009554933028F40C5F1F4F9FE399830DC0F0
:10050000833631F0833771F0833509F059C021C04B
:10051000F801808189830E5F1F4F88248394912C7A
:10052000530113C02801F2E04F0E511CF801A080C6
:10053000B18036FE03C0692D70E002C06FEF7FEF1F
:10054000C5010E94E7034C018201F32DFF773F2E86
:1005500016C0280122E0420E511CF801A080B18093
:1005600036FE03C0692D70E002C06FEF7FEFC5015A
:100570000E94DC034C01F32DF0683F2E820133FC16
:100580001BC0822D90E088169906B0F4B60180E277
:1005900090E00E94F2032A94F4CFF50137FC859194
:1005A00037FE81915F01B60190E00E94F2032110B5
:1005B0002A9421E0821A91088114910471F7E8C00D
:1005C000843611F0893641F5F80137FE07C06081A5
:1005D0007181828193810C5F1F4F08C0608171819E
:1005E000072E000C880B990B0E5F1F4FF32DFF7623
:1005F0003F2E97FF09C090958095709561957F4F2C
:100600008F4F9F4FF0683F2E2AE030E0A3010E94F9
:100610002E04882E861845C0853731F4232D2F7E71
:10062000B22E2AE030E025C0932D997FB92E8F3667
:10063000C1F018F4883579F0B5C0803719F08837E3
:1006400021F0B0C0E92FE061BE2EB4FE0DC0FB2D3D
:10065000F460BF2E09C034FE0AC0292F2660B22ED6
:1006600006C028E030E005C020E130E002C020E113
:1006700032E0F801B7FE07C0608171818281938109
:100680000C5F1F4F06C06081718180E090E00E5FBB
:100690001F4FA3010E942E04882E8618FB2DFF7782
:1006A0003F2E36FE0DC0232D2E7FA22E891458F426
:1006B00034FE0BC032FC09C0832D8E7EA82E05C0EF
:1006C000B82CA32C03C0B82C01C0B92CA4FE0FC0B9
:1006D000FE01E80DF11D8081803321F49A2D997E71
:1006E000A92E09C0A2FE06C0B394B39404C08A2DFB
:1006F000867809F0B394A3FC11C0A0FE06C0B21422
:1007000088F4280C922C9B180EC0B21460F4B60129
:1007100080E290E00E94F203B394F7CFB21418F491
:100720002B1802C0982C212CA4FE10C0B60180E327
:1007300090E00E94F203A2FE17C0A1FC03C088E76C
:1007400090E002C088E590E0B6010CC08A2D867862
:1007500059F0A1FE02C08BE201C080E2A7FC8DE24D
:10076000B60190E00E94F203891438F4B60180E3E8
:1007700090E00E94F2039A94F7CF8A94F301E80D77
:10078000F11D8081B60190E00E94F2038110F5CF47
:10079000222009F442CEB60180E290E00E94F203EA
:1007A0002A94F6CFF6018681978102C08FEF9FEFE2
:1007B0002B96E2E10C94A804FC0105906150704076
:1007C0000110D8F7809590958E0F9F1F0895FC011A
:1007D0006150704001900110D8F7809590958E0F70
:1007E0009F1F08950F931F93CF93DF93FB012381E6
:1007F00021FD03C08FEF9FEF2CC022FF16C0468162
:100800005781248135814217530744F4A081B18177
:100810009D012F5F3F4F318320838C932681378149
:100820002F5F3F4F3783268314C08B01EC01FB0100
:100830000084F185E02D0995892BE1F6D801169603
:100840008D919C911797019617969C938E9316976E
:10085000CE01DF91CF911F910F910895FA01AA2740
:10086000283051F1203181F1E8946F936E7F6E5FF3
:100870007F4F8F4F9F4FAF4FB1E03ED0B4E03CD0A1
:10088000670F781F891F9A1FA11D680F791F8A1F84
:10089000911DA11D6A0F711D811D911DA11D20D0EB
:1008A00009F468943F912AE0269F11243019305DA5
:1008B0003193DEF6CF010895462F4770405D419396
:1008C000B3E00FD0C9F7F6CF462F4F70405D4A33E3
:1008D00018F0495D31FD4052419302D0A9F7EACFAB
:1008E000B4E0A6959795879577956795BA95C9F7DA
:1008F00000976105710508959B01AC010A2E0694CD
:100900005795479537952795BA95C9F7620F731F85
:10091000841F951FA01D08952F923F924F925F92C2
:100920006F927F928F929F92AF92BF92CF92DF92FF
:10093000EF92FF920F931F93CF93DF93CDB7DEB764
:10094000CA1BDB0B0FB6F894DEBF0FBECDBF0994F8
:100950002A88398848885F846E847D848C849B844F
:10096000AA84B984C884DF80EE80FD800C811B815D
:10097000AA81B981CE0FD11D0FB6F894DEBF0FBE8C
:0A098000CDBFED010895F894FFCFFC
:10098A00256325632563256325632563256325631D
:10099A00256325632563256325632563256325630D
:0609AA0025632563000037
:00000001FF
