:100000000C942A000C9447000C9447000C94470071
:100010000C9447000C9447000C9447000C94470044
:100020000C9447000C9447000C9447000C94D700A4
:100030000C9447000C948A000C9447000C944700E1
:100040000C9447000C9447000C9447000C94470014
:100050000C94470011241FBECFE5D4E0DEBFCDBF16
:1000600010E0A0E6B0E0E8E8F9E002C005900D92EB
:10007000A637B107D9F720E0A6E7B0E001C01D928E
:10008000A039B207E1F70E947F010C94C2040C94DE
:10009000000095B321E030E002C0220F331F8A95A3
:1000A000E2F7292B25BB089595B321E030E002C08B
:1000B000220F331F8A95E2F72095292325BB089547
:1000C00090BD89B9599A88ED8AB98EE880BD0895A6
:1000D0005D9BFECF939A8CB908950F931F93CF9396
:1000E000DF93FC0101900020E9F73197E81BF90B41
:1000F0001E161F0654F4EC018C010E0F1F1F899170
:100100000E946800C017D107D1F7DF91CF911F91EE
:100110000F9108951F920F920FB60F92112493988A
:100120000F900FBE0F901F9018950F931F93CF93B2
:10013000DF93CDB7DEB766970FB6F894DEBF0FBE7C
:10014000CDBFFC011F928BEB8F931F928CEC8F9392
:100150001F926F9383811F928F9382811F928F933F
:1001600081811F928F9380811F928F931F928AEAC1
:100170008F9384E690E09F938F938E010F5F1F4FC4
:100180001F930F930E94D801C8010E946D000FB603
:10019000F894DEBF0FBECDBF66960FB6F894DEBFF3
:1001A0000FBECDBFDF91CF911F910F9108951F9288
:1001B0000F920FB60F9211242F933F934F935F939B
:1001C0006F937F938F939F93AF93BF93CF93EF934F
:1001D000FF938BB19CB1887109F062C09A3AC1F467
:1001E00084E0EBE8F0E0DF011D928A95E9F71092D8
:1001F0008A0080E1EAE7F0E0DF011D928A95E9F7E5
:1002000010928F0081E0809377001092760011C0E9
:100210009B3B59F480917700882309F441C01092E8
:10022000770081E0809376003BC08091770088233F
:10023000B9F1C0918F00C530B8F4EC2FF0E0E5576C
:10024000FF4F9083C43061F460E670E08BE890E08B
:100250000E94CD01892B21F4109277001092760034
:10026000CF5FC0938F0013C0C53031F490938A00E4
:1002700086E080938F0014C0C63048F0EAEFEC0FA0
:10028000F0E0E658FF4F9083CF5FC0938F008091DE
:100290008F00863128F01092770081E080937800FB
:1002A000FF91EF91CF91BF91AF919F918F917F91EE
:1002B0006F915F914F913F912F910F900FBE0F90D3
:1002C0001F901895CF938230C1F4C62F81E090E043
:1002D0000E9449004C2F61E080E690E00E9495006A
:1002E0002FE788E391E0215080409040E1F700C083
:1002F000000081E090E00E945400CF910895CF93D8
:10030000DF9300D000D0CDB7DEB788E090E00E9448
:10031000600082EF89838A838B838C838B9A939886
:1003200084B3836084BB78942FEF3EE984E221504C
:1003300030408040E1F700C000004091790061E06A
:10034000CE0101960E94950080E090E00E94490055
:100350009FE728E331E0915020403040E1F700C0B2
:10036000000080E090E00E94540080917600882395
:1003700041F0109276006091790080918A000E948D
:1003800062018FE19CE722EF37E0815090402040EE
:100390003040D9F700C00000D7CFFB01DC010D9041
:1003A0000020E9F7119701900D920020E1F70895E0
:1003B000AEE0B0E0EEEDF1E00C9499040D891E89F9
:1003C00086E08C831A8309838FEF9FE79E838D835A
:1003D000AE01475E5F4F6F89788DCE0101960E9416
:1003E000FA01EF81F885E00FF11F10822E96E4E00C
:1003F0000C94B504ABE0B0E0E0E0F2E00C948B04C8
:100400006C017B018A01FC0117821682838181FFC6
:10041000CCC1CE0101963C01F6019381F70193FD19
:10042000859193FF81917F01882309F4BAC18532B8
:1004300039F493FD859193FF81917F01853229F4F1
:10044000B60190E00E94F103E7CF912C212C312CD2
:10045000FFE1F315D8F08B3279F038F4803279F07F
:100460008332A1F4232D20611DC08D3261F08033D1
:1004700069F4232D216016C0832D8260382EE32D70
:10048000E4603E2E2AC0F32DF8601DC037FC2DC05D
:1004900020ED280F2A3040F08E32B9F436FC81C1AD
:1004A000232D2064322E19C036FE06C08AE0989EA5
:1004B000200D1124922E11C0EAE02E9E200D112451
:1004C000222EF32DF0623F2E08C08C3621F4832DAE
:1004D0008068382E02C0883641F4F70193FD85917B
:1004E00093FF81917F018111B3CF982F9F7D955408
:1004F000933028F40C5F1F4F9FE399830DC0833620
:1005000031F0833771F0833509F059C021C0F8010B
:10051000808189830E5F1F4F88248394912C53011F
:1005200013C02801F2E04F0E511CF801A080B180E9
:1005300036FE03C0692D70E002C06FEF7FEFC5018A
:100540000E94E6034C018201F32DFF773F2E16C077
:10055000280122E0420E511CF801A080B18036FE35
:1005600003C0692D70E002C06FEF7FEFC5010E94EC
:10057000DB034C01F32DF0683F2E820133FC1BC0DE
:10058000822D90E088169906B0F4B60180E290E0E2
:100590000E94F1032A94F4CFF50137FC859137FED0
:1005A00081915F01B60190E00E94F10321102A942D
:1005B00021E0821A91088114910471F7E8C0843611
:1005C00011F0893641F5F80137FE07C0608171816D
:1005D000828193810C5F1F4F08C060817181072E5B
:1005E000000C880B990B0E5F1F4FF32DFF763F2EEB
:1005F00097FF09C090958095709561957F4F8F4FBB
:100600009F4FF0683F2E2AE030E0A3010E942D04A6
:10061000882E861845C0853731F4232D2F7EB22EC3
:100620002AE030E025C0932D997FB92E8F36C1F096
:1006300018F4883579F0B5C0803719F0883721F083
:10064000B0C0E92FE061BE2EB4FE0DC0FB2DF460FA
:10065000BF2E09C034FE0AC0292F2660B22E06C064
:1006600028E030E005C020E130E002C020E132E0C7
:10067000F801B7FE07C060817181828193810C5FB0
:100680001F4F06C06081718180E090E00E5F1F4FB8
:10069000A3010E942D04882E8618FB2DFF773F2E84
:1006A00036FE0DC0232D2E7FA22E891458F434FE61
:1006B0000BC032FC09C0832D8E7EA82E05C0B82C3D
:1006C000A32C03C0B82C01C0B92CA4FE0FC0FE019E
:1006D000E80DF11D8081803321F49A2D997EA92E99
:1006E00009C0A2FE06C0B394B39404C08A2D8678D4
:1006F00009F0B394A3FC11C0A0FE06C0B21488F4A4
:10070000280C922C9B180EC0B21460F4B60180E243
:1007100090E00E94F103B394F7CFB21418F42B18B1
:1007200002C0982C212CA4FE10C0B60180E390E0FA
:100730000E94F103A2FE17C0A1FC03C088E790E06D
:1007400002C088E590E0B6010CC08A2D867859F089
:10075000A1FE02C08BE201C080E2A7FC8DE2B601DF
:1007600090E00E94F103891438F4B60180E390E030
:100770000E94F1039A94F7CF8A94F301E80DF11DDA
:100780008081B60190E00E94F1038110F5CF222014
:1007900009F442CEB60180E290E00E94F1032A946F
:1007A000F6CFF6018681978102C08FEF9FEF2B96DF
:1007B000E2E10C94A704FC01059061507040011027
:1007C000D8F7809590958E0F9F1F0895FC0161507A
:1007D000704001900110D8F7809590958E0F9F1F63
:1007E00008950F931F93CF93DF93FB01238121FD86
:1007F00003C08FEF9FEF2CC022FF16C046815781A8
:10080000248135814217530744F4A081B1819D01B1
:100810002F5F3F4F318320838C93268137812F5F59
:100820003F4F3783268314C08B01EC01FB0100840A
:10083000F185E02D0995892BE1F6D80116968D9169
:100840009C911797019617969C938E931697CE01BD
:10085000DF91CF911F910F910895FA01AA272830B7
:1008600051F1203181F1E8946F936E7F6E5F7F4F7D
:100870008F4F9F4FAF4FB1E03ED0B4E03CD0670FF9
:10088000781F891F9A1FA11D680F791F8A1F911D4C
:10089000A11D6A0F711D811D911DA11D20D009F49C
:1008A00068943F912AE0269F11243019305D3193DE
:1008B000DEF6CF010895462F4770405D4193B3E0C7
:1008C0000FD0C9F7F6CF462F4F70405D4A3318F06E
:1008D000495D31FD4052419302D0A9F7EACFB4E01F
:1008E000A6959795879577956795BA95C9F70097D7
:1008F0006105710508959B01AC010A2E0694579578
:10090000479537952795BA95C9F7620F731F841FCE
:10091000951FA01D08952F923F924F925F926F9264
:100920007F928F929F92AF92BF92CF92DF92EF927F
:10093000FF920F931F93CF93DF93CDB7DEB7CA1B00
:10094000DB0B0FB6F894DEBF0FBECDBF09942A882B
:10095000398848885F846E847D848C849B84AA84D3
:10096000B984C884DF80EE80FD800C811B81AA8160
:10097000B981CE0FD11D0FB6F894DEBF0FBECDBF2B
:08098000ED010895F894FFCF8A
:10098800010101012563256325632563256325632B
:0609980025632563000049
:00000001FF
