S0120000436F6E74726F6C6C65722E73726563EE
S11300000C943B000C9458000C9458000C94580029
S11300100C9458000C9458000C9458000C945800FC
S11300200C9458000C9458000C9458000C944501FE
S11300300C9458000C947A000C9458000C945800BA
S11300400C9458000C9458000C9458000C945800CC
S11300500C9458008201850188018B018E01910165
S1130060940197019A019D01A001A301A601A90190
S1130070AC01AF01B20111241FBECFE5D4E0DEBF55
S1130080CDBF10E0A0E6B0E0E8E5F4E002C00590E2
S11300900D92A636B107D9F720E0A6E6B0E001C07C
S11300A01D92A538B207E1F70E94EB010C942A02D5
S11300B00C94000090BD89B9599A88ED8AB98EE8EC
S11300C080BD08955D9BFECF939A8CB908950F93DC
S11300D01F93CF93DF93EC018C010E5E1F4F899128
S11300E00E946200C017D107D1F7DF91CF911F9111
S11300F00F9108951F920F920FB60F9211249398A7
S11301000F900FBE0F901F901895FC01AC01460F85
S1130110511D80E090E0E417F50781F021919227CA
S113012028E0992334F4880F991F35E083279058E9
S113013002C0880F991F2150A1F7EDCF08958F9227
S11301409F92AF92BF92CF92DF92EF92FF920F9362
S11301501F93CF93DF93CDB7DEB7A1970FB6F89473
S1130160DEBF0FBECDBF5C018B017A014901DC010A
S11301708C91898311968C918A830F2EF1E8CF2E6E
S1130180F0E0DF2EF02DF60180818B8381818C835A
S1130190809180008D83DB018C918E8311968C91EC
S11301A011978F8312968C911297888713968C914E
S11301B01397898714968C9114978A8715968C9136
S11301C08B87FA0180818C8781818D8782818E87DC
S11301D083818F876FE0CE0101960E948500D40150
S11301E09C9311968C93FE01709622E1DF011D927F
S11301F02A95E9F7D5012C91298B11962C912A8BFC
S1130200D6012C912B8B11962C912C8B2091800054
S11302102D8BD8012C912E8B11962C9111972F8B0D
S113022012962C911297288F13962C911397298F3D
S113023014962C9114972A8F15962C912B8FD701F5
S11302402C912C8F11962C9111972D8F12962C9105
S113025012972E8F13962C912F8F98A389A3CF01D9
S11302600E946700A1960FB6F894DEBF0FBECDBF03
S1130270DF91CF911F910F91FF90EF90DF90CF907E
S1130280BF90AF909F908F9008951F920F920FB6DA
S11302900F9211244F935F936F937F938F939F9348
S11302A0AF93BF93EF93FF938BB19CB1887109F027
S11302B073C080916700811162C091116DC010926A
S11302C079001092780010927700109276001092C4
S11302D0750086E0EFE6F0E0DF011D928A95E9F70C
S11302E084E0EBE6F0E0DF011D928A95E9F71092D5
S11302F06A001092690081E08093670010926600A2
S113030080E032C0909378002FC0909379002CC085
S11303109093760029C09093770026C0909375003F
S113032023C090936F0020C0909370001DC09093E1
S113033071001AC09093720017C09093730014C098
S11303409093740011C090936B000EC090936C0056
S11303500BC090936D0008C090936E0005C09093FD
S1130360690002C090936A008F5F809368008231B5
S113037098F01092670081E0809366000DC0809130
S11303806800482F50E0FA013197E131F10560F738
S1130390E65DFF4F0C942402FF91EF91BF91AF9162
S11303A09F918F917F916F915F914F910F900FBEAD
S11303B00F901F90189521E030E0FC0140814F3FE1
S11303C011F020E030E0FC01E20FF31F808191E0A6
S11303D0980F9083089588E090E00E945A00E3E823
S11303E0F0E081E080839EE59183809360008CE758
S11303F090E00E94DB01809380008B9A939884B3F1
S1130400836084BB78942AE730E04CE750E060E6F0
S113041070E083E890E00E949F008FEC97E00197E2
S1130420F1F700C00000809166008823B1F31092B8
S1130430660029E630E04BE650E06FE670E088E7BE
S113044090E00E949F00E9CFEE0FFF1F0590F4910A
S10B0450E02D0994F894FFCF9C
S109045804000000000096
S9030000FC
